:020000040800F2
:100000000000012035100008C70F0008CD0F0008C0
:10001000D30F0008D90F0008DF0F00080000000010
:10002000000000000000000000000000E50F0008D4
:10003000F30F00080000000001100008E90D00089F
:10004000851000088510000885100008851000083C
:1000500085100008851000080D0500083905000806
:100060006505000891050008BD0500088510000819
:10007000851000088510000885100008851000080C
:100080008510000885100008851000080000000099
:1000900000000000000000000000000085100008C3
:1000A00085100008851000088510000885100008DC
:1000B00085100008851000088510000885100008CC
:1000C00085100008851000088510000885100008BC
:1000D0008510000885100008851000080000000049
:1000E0008510000885100008851000080000000039
:1000F0000000000000000000000000008510000863
:100100000000000085100008851000088510000818
:1001100000000000000000000000000000000000DF
:10012000851000088510000885100008851000085B
:100130008510000800000000000000000000000022
:100140000000000000000000000000008510000812
:10015000851000088510000885100008851000082B
:100160008510000885100008000000000000000055
:10017000000000000000000000000000000000007F
:1001800000000000851000080000000000000000D2
:0401900085100008CE
:1001940010B5054C237833B9044B13B10448AFF3BD
:1001A40000800123237010BD000000200000000027
:1001B400D010000808B5034B1BB103490348AFF343
:1001C400008008BD0000000004000020D0100008DA
:1001D40080B483B000AF0346FB71084B1B68FA7907
:1001E400012101FA02F21146044A0B43136000BFD5
:1001F4000C37BD465DF8047B704700BF003C0140EE
:1002040080B483B000AF03460A46FB711346BB714A
:10021400BB79032B1CD0032B2FDC012B02D0022B28
:100224000BD02AE0184B9B68FA79012101FA02F2FB
:100234001146154A0B4393601FE0134BDB68FA79B0
:10024400012101FA02F211460F4A0B43D36014E074
:100254000D4B9B68FA79012101FA02F211460A4A10
:100264000B439360084BDB68FA79012101FA02F22F
:100274001146054A0B43D36000BF00BF0C37BD468F
:100284005DF8047B704700BF003C014080B483B03C
:1002940000AF03460A46FB711346BB71FB790F2B73
:1002A40000F20C8101A252F823F000BFF102000811
:1002B4000B0300082903000847030008650300082E
:1002C4007F0300089D030008BB030008D90300084E
:1002D400F3030008110400082F0400084D0400086B
:1002E4006704000885040008A3040008764B9B6893
:1002F400754A23F00F039360734B9A68BB79724974
:1003040013438B60DAE0704B9B686F4A23F0F00371
:1003140093606D4B9B68BA79120111466A4A0B438C
:100324009360CBE0684B9B68674A23F470639360E7
:10033400654B9B68BA7912021146634A0B4393607A
:10034400BCE0614B9B68604A23F4704393605E4B4E
:100354009B68BA79120311465B4A0B439360ADE084
:10036400594BDB68584A23F00F03D360564BDA68C5
:10037400BB7955491343CB60A0E0534BDB68524A29
:1003840023F0F003D360504BDB68BA7912011146B5
:100394004D4A0B43D36091E04B4BDB684A4A23F44C
:1003A4007063D360484BDB68BA7912021146464A3F
:1003B4000B43D36082E0444BDB68434A23F470432D
:1003C400D360414BDB68BA79120311463E4A0B43B2
:1003D400D36073E03C4B1B693B4A23F00F0313616A
:1003E400394B1A69BB79384913430B6166E0364BC4
:1003F4001B69354A23F0F0031361334B1B69BA7947
:1004040012011146304A0B43136157E02E4B1B690E
:100414002D4A23F4706313612B4B1B69BA791202C2
:100424001146294A0B43136148E0274B1B69264AAE
:1004340023F470431361244B1B69BA7912031146E8
:10044400214A0B43136139E01F4B5B691E4A23F0B9
:100454000F0353611C4B5A69BB791B4913434B610E
:100464002CE0194B5B69184A23F0F0035361164BD7
:100474005B69BA7912011146134A0B4353611DE0BB
:10048400114B5B69104A23F4706353610E4B5B6933
:10049400BA79120211460C4A0B4353610EE00A4B1F
:1004A4005B69094A23F470435361074B5B69BA796A
:1004B40012031146044A0B43536100BF00BF0C37BB
:1004C400BD465DF8047B70470038014080B485B0B8
:1004D40000AF03463960FB710023FB733B68002BBC
:1004E40009D0FB790F2B06D80123FB73FB7905494F
:1004F4003A6841F82320FB7B18461437BD465DF863
:10050400047B70471C00002080B500AF074B1B68BC
:10051400002B08D0054B1B689847054B5B69044AC0
:1005240043F00103536100BF80BD00BF1C000020E5
:10053400003C014080B500AF074B5B68002B08D03E
:10054400054B5B689847054B5B69044A43F002031B
:10055400536100BF80BD00BF1C000020003C01406F
:1005640080B500AF074B9B68002B08D0054B9B68F8
:100574009847054B5B69044A43F00403536100BF89
:1005840080BD00BF1C000020003C014080B500AFCE
:10059400074BDB68002B08D0054BDB689847054BFD
:1005A4005B69044A43F00803536100BF80BD00BF88
:1005B4001C000020003C014080B500AF074B1B69C4
:1005C400002B08D0054B1B699847054B5B69044A0F
:1005D40043F01003536100BF80BD00BF1C00002026
:1005E400003C014080B483B000AF0346FB710B466E
:1005F400BB7113467B71FB79052B00F29F8001A22E
:1006040052F823F02106000851060008810600086C
:10061400B1060008E1060008110700084A4B1B68F0
:10062400BA795200032101FA02F2D2431146464A32
:100634000B401360444B1B687979BA79520001FA74
:1006440002F21146404A0B43136077E03F4B1B68AC
:10065400BA795200032101FA02F2D24311463B4A0D
:100664000B401360394B1B687979BA79520001FA4F
:1006740002F21146354A0B4313605FE0344B1B68AA
:10068400BA795200032101FA02F2D2431146304AE8
:100694000B4013602E4B1B687979BA79520001FA2A
:1006A40002F211462A4A0B43136047E0294B1B68A8
:1006B400BA795200032101FA02F2D2431146254AC3
:1006C4000B401360234B1B687979BA79520001FA05
:1006D40002F211461F4A0B4313602FE01E4B1B68A6
:1006E400BA795200032101FA02F2D24311461A4A9E
:1006F4000B401360184B1B687979BA79520001FAE0
:1007040002F21146144A0B43136017E0134B1B68A3
:10071400BA795200032101FA02F2D24311460F4A78
:100724000B4013600D4B1B687979BA79520001FABA
:1007340002F21146094A0B43136000BF00BF0C3795
:10074400BD465DF8047B704700000240000402408F
:1007540000080240000C024000100240001C02404D
:1007640080B483B000AF0346FB710B46BB711346E4
:100774007B71FB79052B51D801A252F823F000BFFD
:100784009D070008B3070008C9070008DF07000831
:10079400F50700080B080008234B5B687979BA79E0
:1007A40001FA02F21146204A0B43536036E01F4B14
:1007B4005B687979BA7901FA02F211461B4A0B4354
:1007C40053602BE01A4B5B687979BA7901FA02F22B
:1007D4001146174A0B43536020E0164B5B68797946
:1007E400BA7901FA02F21146124A0B43536015E03A
:1007F400114B5B687979BA7901FA02F211460E4A13
:100804000B4353600AE00D4B5B687979BA7901FABE
:1008140002F21146094A0B43536000BF00BF0C3774
:10082400BD465DF8047B70470000024000040240AE
:1008340000080240000C024000100240001C02406C
:1008440080B483B000AF0346FB710B46BB71134603
:100854007B71FB79052B00F29F8001A252F823F0F3
:100864007D080008AD080008DD0800080D0900082F
:100874003D0900086D0900084A4BDB68BA7952004B
:10088400032101FA02F2D2431146464A0B40D360D7
:10089400444BDB687979BA79520001FA02F21146C5
:1008A400404A0B43D36077E03F4BDB68BA79520090
:1008B400032101FA02F2D24311463B4A0B40D360B2
:1008C400394BDB687979BA79520001FA02F21146A0
:1008D400354A0B43D3605FE0344BDB68BA7952008E
:1008E400032101FA02F2D2431146304A0B40D3608D
:1008F4002E4BDB687979BA79520001FA02F211467B
:100904002A4A0B43D36047E0294BDB68BA7952008B
:10091400032101FA02F2D2431146254A0B40D36067
:10092400234BDB687979BA79520001FA02F2114655
:100934001F4A0B43D3602FE01E4BDB68BA79520089
:10094400032101FA02F2D24311461A4A0B40D36042
:10095400184BDB687979BA79520001FA02F2114630
:10096400144A0B43D36017E0134BDB68BA79520087
:10097400032101FA02F2D24311460F4A0B40D3601D
:100984000D4BDB687979BA79520001FA02F211460B
:10099400094A0B43D36000BF00BF0C37BD465DF866
:1009A400047B70470000024000040240000802403B
:1009B400000C024000100240001C024080B483B0CE
:1009C40000AF0346FB710B46BB7113467B71FB7989
:1009D400052B00F2938001A252F823F0F9090008D4
:1009E400250A0008510A00087D0A0008A90A00081F
:1009F400D50A0008444B5B69BA79012101FA02F275
:100A0400D2431146404A0B4053613F4B5B697979AD
:100A1400BA7901FA02F211463B4A0B4353616DE085
:100A24003A4B5B69BA79012101FA02F2D2431146C9
:100A3400364A0B405361354B5B697979BA7901FACF
:100A440002F21146314A0B43536157E0304B5B6964
:100A5400BA79012101FA02F2D24311462C4A0B4021
:100A640053612B4B5B697979BA7901FA02F2114629
:100A7400274A0B43536141E0264B5B69BA79012154
:100A840001FA02F2D2431146224A0B405361214B30
:100A94005B697979BA7901FA02F211461D4A0B436E
:100AA40053612BE01C4B5B69BA79012101FA02F214
:100AB400D2431146184A0B405361174B5B6979794D
:100AC400BA7901FA02F21146134A0B43536115E055
:100AD400124B5B69BA79012101FA02F2D243114641
:100AE4000E4A0B4053610D4B5B697979BA7901FA6F
:100AF40002F21146094A0B43536100BF00BF0C3791
:100B0400BD465DF8047B70470000024000040240CB
:100B140000080240000C024000100240001C024089
:100B240080B483B000AF0346FB710D4A97F90730D8
:100B34005B0952F82320FB7903F01F03012101FA1A
:100B440003F31846064997F907305B09024341F855
:100B5400232000BF0C37BD465DF8047B704700BFFF
:100B640000E100E080B483B000AF0346FB71FB7981
:100B7400022B62D0022B00F3A280002B33D0012B76
:100B840040F09D80514B1B68504A43F480331360FE
:100B940000BF4E4B1B685B0C03F00103002BF8D025
:100BA4004A4B1B68494A43F48023136000BF474BF8
:100BB4009B68464A43F001039360444B9B68434A55
:100BC40023F00203936000BF404B9B689B0803F033
:100BD4000103012B70D03D4B9B68DB0803F001033C
:100BE400002BF1D068E0394B1B68384A43F001030D
:100BF400136000BF354B1B685B0803F00103002B37
:100C0400F8D0324B9B68314A23F0010393602F4B99
:100C14009B682E4A23F00203936000BF2B4B9B6812
:100C24009B0803F00103002B48D0284B9B68DB088A
:100C340003F00103002BF1D040E0244B1B68234A4E
:100C440043F00103136000BF204B1B685B0803F0F3
:100C54000103002BF8D01D4B1B681C4A43F0807322
:100C6400136000BF194B1B685B0E03F00103002BDC
:100C7400F8D0164B5B68154A23F480035360134B7A
:100C84009B68124A23F001039360104B9B680F4A40
:100C940043F00203936000BF0C4B9B689B0803F076
:100CA4000103002B06D0094B9B68DB0803F001030A
:100CB400012BF1D000BF02E000BF00E000BF00BF85
:100CC4000C37BD465DF8047B704700BF0038024016
:100CD40080B483B000AF03460A46FB711346BB7170
:100CE400FB79013B032B37D801A252F823F000BF54
:100CF400050D00081B0D0008310D0008470D000804
:100D0400184B1B6BBA79012101FA02F21146154AFC
:100D14000B43136320E0134B5B6BBA79012101FA97
:100D240002F211460F4A0B43536315E00D4B1B6C43
:100D3400BA79012101FA02F211460A4A0B431364FB
:100D44000AE0084B5B6CBA79012101FA02F2114600
:100D5400044A0B43536400BF00BF0C37BD465DF823
:100D6400047B70470038024080B400AF054B1B6819
:100D7400044A23F00403136000BFBD465DF8047BFE
:100D8400704700BF10E000E080B483B000AF78602B
:100D9400134A7B684FF4FA6101FB03F35360104B71
:100DA4001B680F4A43F00103136000BF0C4B1B6820
:100DB4001B0C03F00103002BF8D0094B00225A60EE
:100DC400074B00229A60064B1B68054A23F0010377
:100DD400136000BF0C37BD465DF8047B704700BF4D
:100DE40010E000E080B582B000AF124B1B6898475A
:100DF400114B1B78022B11D1104B00225A600F4B60
:100E040000229A600D4B1B680C4A23F00103136007
:100E14000A4B1B68094A23F002031360074B1B6843
:100E24001B0CDBB203F00103FB7100BF0837BD46A6
:100E340080BD00BF5C0000206000002010E000E0E6
:100E440080B500AF0020FFF78DFE00210120FFF7E1
:100E54003FFF0E210420FFF73BFF00F017F8FFF7D8
:100E640083FF0720FFF75CFE07490120FFF72EFBF5
:100E740002210120FFF7C4F900210120FFF706FA3F
:100E84000120FFF7A5F9FEE7E90E000880B500AFE1
:100E9400012200210020FFF7A5FB012202210020EE
:100EA400FFF7A0FB012203210020FFF79BFB002298
:100EB40001210020FFF796FB012201210020FFF70A
:100EC400BFFC002200210020FFF74AFC002202217F
:100ED4000020FFF745FC002203210020FFF740FC1F
:100EE40000BF80BD80B582B000AF01220021002088
:100EF400FFF764FD43F2B060FFF746FF0023FB7188
:100F04001EE0002200210020FFF758FD00220221EC
:100F14000020FFF753FD4FF47A70FFF735FF0122ED
:100F240000210020FFF74AFD012202210020FFF7E3
:100F340045FD4FF47A70FFF727FFFB790133FB710E
:100F4400FB79022BDDD9002200210020FFF736FDBA
:100F5400012203210020FFF731FD43F2B060FFF7C7
:100F640013FF0023BB711EE0002203210020FFF7C2
:100F740025FD002202210020FFF720FD4FF47A70A6
:100F8400FFF702FF012203210020FFF717FD0122D2
:100F940002210020FFF712FD4FF47A70FFF7F4FEF0
:100FA400BB790133BB71BB79022BDDD9002203214C
:100FB4000020FFF703FD002202210020FFF7FEFCC2
:100FC40093E780B400AFFEE780B400AFFEE780B4DF
:100FD40000AFFEE780B400AFFEE780B400AFFEE7E9
:100FE40080B400AF00BFBD465DF8047B704780B499
:100FF40000AF00BFBD465DF8047B704780B400AF0E
:1010040000BFBD465DF8047B7047000080B400AFAC
:10101400064BD3F88830054A43F47003C2F888308D
:1010240000BFBD465DF8047B704700BF00ED00E0E3
:10103400DFF834D00D480E490E4A002302E0D4589C
:10104400C4500433C4188C42F9D30B4A0B4C00230C
:1010540001E013600432A242FBD3FFF7D7FF00F094
:1010640011F8FFF7EDFE704700000120000000209A
:1010740000000020F01000080000002064000020A0
:10108400FEE7000070B50D4D0D4C641BA410002646
:10109400A64209D10B4D0C4C00F018F8641BA410A7
:1010A4000026A64205D170BD55F8043B9847013689
:1010B400EEE755F8043B98470136F2E7E8100008DC
:1010C400E8100008E8100008EC100008F8B500BFAC
:1010D400F8BC08BC9E467047F8B500BFF8BC08BC15
:0410E4009E4670476D
:0410E800B901000842
:0410EC009501000862
:0400000508001035AA
:00000001FF
