:020000040800F2
:100000000000012045130008CD120008D31200089B
:10001000D9120008DF120008E512000800000000F5
:10002000000000000000000000000000EB120008CB
:10003000F91200080000000007130008151300085B
:1000400095130008951300089513000895130008F0
:1000500095130008951300080D05000839050008E0
:100060006505000891050008BD0500089513000806
:1000700095130008951300089513000895130008C0
:100080009513000895130008951300080000000060
:1000900000000000000000000000000095130008B0
:1000A0009513000895130008951300089513000890
:1000B0009513000895130008951300089513000880
:1000C000951300089513000895130008410F0008C8
:1000D000650F000895130008951300080000000044
:1000E0009513000895130008951300080000000000
:1000F0000000000000000000000000009513000850
:10010000000000009513000895130008890F0008EF
:1001100000000000000000000000000000000000DF
:10012000951300089513000895130008951300080F
:10013000951300080000000000000000000000000F
:1001400000000000000000000000000095130008FF
:1001500095130008951300089513000895130008DF
:10016000951300089513000800000000000000002F
:10017000000000000000000000000000000000007F
:1001800000000000951300080000000000000000BF
:04019000AD0F0008A7
:1001940010B5054C237833B9044B13B10448AFF3BD
:1001A40000800123237010BD040000200000000023
:1001B4000814000808B5034B1BB103490348AFF307
:1001C400008008BD0000000008000020081400089A
:1001D40080B483B000AF0346FB71084B1B68FA7907
:1001E400012101FA02F21146044A0B43136000BFD5
:1001F4000C37BD465DF8047B704700BF003C0140EE
:1002040080B483B000AF03460A46FB711346BB714A
:10021400BB79032B1CD0032B2FDC012B02D0022B28
:100224000BD02AE0184B9B68FA79012101FA02F2FB
:100234001146154A0B4393601FE0134BDB68FA79B0
:10024400012101FA02F211460F4A0B43D36014E074
:100254000D4B9B68FA79012101FA02F211460A4A10
:100264000B439360084BDB68FA79012101FA02F22F
:100274001146054A0B43D36000BF00BF0C37BD468F
:100284005DF8047B704700BF003C014080B483B03C
:1002940000AF03460A46FB711346BB71FB790F2B73
:1002A40000F20C8101A252F823F000BFF102000811
:1002B4000B0300082903000847030008650300082E
:1002C4007F0300089D030008BB030008D90300084E
:1002D400F3030008110400082F0400084D0400086B
:1002E4006704000885040008A3040008764B9B6893
:1002F400754A23F00F039360734B9A68BB79724974
:1003040013438B60DAE0704B9B686F4A23F0F00371
:1003140093606D4B9B68BA79120111466A4A0B438C
:100324009360CBE0684B9B68674A23F470639360E7
:10033400654B9B68BA7912021146634A0B4393607A
:10034400BCE0614B9B68604A23F4704393605E4B4E
:100354009B68BA79120311465B4A0B439360ADE084
:10036400594BDB68584A23F00F03D360564BDA68C5
:10037400BB7955491343CB60A0E0534BDB68524A29
:1003840023F0F003D360504BDB68BA7912011146B5
:100394004D4A0B43D36091E04B4BDB684A4A23F44C
:1003A4007063D360484BDB68BA7912021146464A3F
:1003B4000B43D36082E0444BDB68434A23F470432D
:1003C400D360414BDB68BA79120311463E4A0B43B2
:1003D400D36073E03C4B1B693B4A23F00F0313616A
:1003E400394B1A69BB79384913430B6166E0364BC4
:1003F4001B69354A23F0F0031361334B1B69BA7947
:1004040012011146304A0B43136157E02E4B1B690E
:100414002D4A23F4706313612B4B1B69BA791202C2
:100424001146294A0B43136148E0274B1B69264AAE
:1004340023F470431361244B1B69BA7912031146E8
:10044400214A0B43136139E01F4B5B691E4A23F0B9
:100454000F0353611C4B5A69BB791B4913434B610E
:100464002CE0194B5B69184A23F0F0035361164BD7
:100474005B69BA7912011146134A0B4353611DE0BB
:10048400114B5B69104A23F4706353610E4B5B6933
:10049400BA79120211460C4A0B4353610EE00A4B1F
:1004A4005B69094A23F470435361074B5B69BA796A
:1004B40012031146044A0B43536100BF00BF0C37BB
:1004C400BD465DF8047B70470038014080B485B0B8
:1004D40000AF03463960FB710023FB733B68002BBC
:1004E40009D0FB790F2B06D80123FB73FB7905494F
:1004F4003A6841F82320FB7B18461437BD465DF863
:10050400047B70472000002080B500AF074B1B68B8
:10051400002B08D0054B1B689847054B5B69044AC0
:1005240043F00103536100BF80BD00BF20000020E1
:10053400003C014080B500AF074B5B68002B08D03E
:10054400054B5B689847054B5B69044A43F002031B
:10055400536100BF80BD00BF20000020003C01406B
:1005640080B500AF074B9B68002B08D0054B9B68F8
:100574009847054B5B69044A43F00403536100BF89
:1005840080BD00BF20000020003C014080B500AFCA
:10059400074BDB68002B08D0054BDB689847054BFD
:1005A4005B69044A43F00803536100BF80BD00BF88
:1005B40020000020003C014080B500AF074B1B69C0
:1005C400002B08D0054B1B699847054B5B69044A0F
:1005D40043F01003536100BF80BD00BF2000002022
:1005E400003C014080B483B000AF0346FB710B466E
:1005F400BB7113467B71FB79052B00F29F8001A22E
:1006040052F823F02106000851060008810600086C
:10061400B1060008E1060008110700084A4B1B68F0
:10062400BA795200032101FA02F2D2431146464A32
:100634000B401360444B1B687979BA79520001FA74
:1006440002F21146404A0B43136077E03F4B1B68AC
:10065400BA795200032101FA02F2D24311463B4A0D
:100664000B401360394B1B687979BA79520001FA4F
:1006740002F21146354A0B4313605FE0344B1B68AA
:10068400BA795200032101FA02F2D2431146304AE8
:100694000B4013602E4B1B687979BA79520001FA2A
:1006A40002F211462A4A0B43136047E0294B1B68A8
:1006B400BA795200032101FA02F2D2431146254AC3
:1006C4000B401360234B1B687979BA79520001FA05
:1006D40002F211461F4A0B4313602FE01E4B1B68A6
:1006E400BA795200032101FA02F2D24311461A4A9E
:1006F4000B401360184B1B687979BA79520001FAE0
:1007040002F21146144A0B43136017E0134B1B68A3
:10071400BA795200032101FA02F2D24311460F4A78
:100724000B4013600D4B1B687979BA79520001FABA
:1007340002F21146094A0B43136000BF00BF0C3795
:10074400BD465DF8047B704700000240000402408F
:1007540000080240000C024000100240001C02404D
:1007640080B483B000AF0346FB710B46BB711346E4
:100774007B71FB79052B51D801A252F823F000BFFD
:100784009D070008B3070008C9070008DF07000831
:10079400F50700080B080008234B5B687979BA79E0
:1007A40001FA02F21146204A0B43536036E01F4B14
:1007B4005B687979BA7901FA02F211461B4A0B4354
:1007C40053602BE01A4B5B687979BA7901FA02F22B
:1007D4001146174A0B43536020E0164B5B68797946
:1007E400BA7901FA02F21146124A0B43536015E03A
:1007F400114B5B687979BA7901FA02F211460E4A13
:100804000B4353600AE00D4B5B687979BA7901FABE
:1008140002F21146094A0B43536000BF00BF0C3774
:10082400BD465DF8047B70470000024000040240AE
:1008340000080240000C024000100240001C02406C
:1008440080B483B000AF0346FB710B46BB71134603
:100854007B71FB79052B00F2938001A252F823F0FF
:100864007D080008A9080008D50800080109000847
:100874002D09000859090008444B5B69BA79012124
:1008840001FA02F2D2431146404A0B4053613F4BF6
:100894005B697979BA7901FA02F211463B4A0B4352
:1008A40053616DE03A4B5B69BA79012101FA02F2B6
:1008B400D2431146364A0B405361354B5B69797913
:1008C400BA7901FA02F21146314A0B43536157E0F7
:1008D400304B5B69BA79012101FA02F2D243114625
:1008E4002C4A0B4053612B4B5B697979BA7901FA35
:1008F40002F21146274A0B43536141E0264B5B69E0
:10090400BA79012101FA02F2D2431146224A0B407C
:100914005361214B5B697979BA7901FA02F2114684
:100924001D4A0B4353612BE01C4B5B69BA790121CF
:1009340001FA02F2D2431146184A0B405361174B95
:100944005B697979BA7901FA02F21146134A0B43C9
:10095400536115E0124B5B69BA79012101FA02F285
:10096400D24311460E4A0B4053610D4B5B697979B2
:10097400BA7901FA02F21146094A0B43536100BFE6
:1009840000BF0C37BD465DF8047B70470000024091
:100994000004024000080240000C02400010024023
:1009A400001C024080B485B000AF0346FB710B46C7
:1009B400BB7113467B71BB79072B00F2A380FB79D3
:1009C400052B00F2458101A252F823F0E909000841
:1009D400190A0008490A0008790A0008A90A000847
:1009E400D90A00089D4B1B6ABA7992000F2101FABB
:1009F40002F2D2431146994A0B401362974B1B6A89
:100A04007979BA79920001FA02F21146934A0B43BA
:100A140013621DE1924B1B6ABA7992000F2101FA0D
:100A240002F2D24311468E4A0B4013628C4B1B6A6E
:100A34007979BA79920001FA02F21146884A0B4395
:100A4400136205E1874B1B6ABA7992000F2101FA00
:100A540002F2D2431146834A0B401362814B1B6A54
:100A64007979BA79920001FA02F211467D4A0B4370
:100A74001362EDE07C4B1B6ABA7992000F2101FAF4
:100A840002F2D2431146784A0B401362764B1B6A3A
:100A94007979BA79920001FA02F21146724A0B434B
:100AA4001362D5E0714B1B6ABA7992000F2101FAE7
:100AB40002F2D24311466D4A0B4013626B4B1B6A20
:100AC4007979BA79920001FA02F21146674A0B4326
:100AD4001362BDE0664B1B6ABA7992000F2101FADA
:100AE40002F2D2431146624A0B401362604B1B6A06
:100AF4007979BA79920001FA02F211465C4A0B4301
:100B04001362A5E0BB79083BFB73FB79052B00F26C
:100B14009F8001A252F823F0350B0008650B0008F2
:100B2400950B0008C50B0008F50B0008250C000800
:100B34004A4B5B6AFA7B92000F2101FA02F2D2431C
:100B44001146464A0B405362444B5B6A7979FA7BFF
:100B5400920001FA02F21146404A0B43536277E0D5
:100B64003F4B5B6AFA7B92000F2101FA02F2D243F7
:100B740011463B4A0B405362394B5B6A7979FA7BE5
:100B8400920001FA02F21146354A0B4353625FE0C8
:100B9400344B5B6AFA7B92000F2101FA02F2D243D2
:100BA4001146304A0B4053622E4B5B6A7979FA7BCB
:100BB400920001FA02F211462A4A0B43536247E0BB
:100BC400294B5B6AFA7B92000F2101FA02F2D243AD
:100BD4001146254A0B405362234B5B6A7979FA7BB1
:100BE400920001FA02F211461F4A0B4353622FE0AE
:100BF4001E4B5B6AFA7B92000F2101FA02F2D24388
:100C040011461A4A0B405362184B5B6A7979FA7B96
:100C1400920001FA02F21146144A0B43536217E0A0
:100C2400134B5B6AFA7B92000F2101FA02F2D24362
:100C340011460F4A0B4053620D4B5B6A7979FA7B7C
:100C4400920001FA02F21146094A0B43536200BFB3
:100C540000BF1437BD465DF8047B704700000240B6
:100C64000004024000080240000C02400010024050
:100C7400001C024080B483B000AF0346FB710D4AF0
:100C840097F907305B0952F82320FB7903F01F031F
:100C9400012101FA03F31846064997F907305B0965
:100CA400024341F8232000BF0C37BD465DF8047BA6
:100CB400704700BF00E100E080B483B000AF03469A
:100CC400FB71FB79022B62D0022B00F3A280002B74
:100CD40033D0012B40F09D80514B1B68504A43F4A4
:100CE4008033136000BF4E4B1B685B0C03F00103A1
:100CF400002BF8D04A4B1B68494A43F48023136005
:100D040000BF474B9B68464A43F001039360444B42
:100D14009B68434A23F00203936000BF404B9B68E7
:100D24009B0803F00103012B70D03D4B9B68DB084B
:100D340003F00103002BF1D068E0394B1B68384AFB
:100D440043F00103136000BF354B1B685B0803F0DD
:100D54000103002BF8D0324B9B68314A23F0010386
:100D640093602F4B9B682E4A23F00203936000BFCD
:100D74002B4B9B689B0803F00103002B48D0284BA6
:100D84009B68DB0803F00103002BF1D040E0244B07
:100D94001B68234A43F00103136000BF204B1B6808
:100DA4005B0803F00103002BF8D01D4B1B681C4AA1
:100DB40043F08073136000BF194B1B685B0E03F094
:100DC4000103002BF8D0164B5B68154A23F480030B
:100DD4005360134B9B68124A23F001039360104B3A
:100DE4009B680F4A43F00203936000BF0C4B9B685F
:100DF4009B0803F00103002B06D0094B9B68DB081A
:100E040003F00103012BF1D000BF02E000BF00E0BA
:100E140000BF00BF0C37BD465DF8047B704700BFC0
:100E24000038024080B483B000AF03460A46FB7129
:100E34001346BB71FB79013B032B37D801A252F84F
:100E440023F000BF590E00086F0E0008850E00083D
:100E54009B0E0008184B1B6BBA79012101FA02F2B0
:100E64001146154A0B43136320E0134B5B6BBA79AD
:100E7400012101FA02F211460F4A0B43536315E0B4
:100E84000D4B1B6CBA79012101FA02F211460A4A90
:100E94000B4313640AE0084B5B6CBA79012101FA35
:100EA40002F21146044A0B43536400BF00BF0C37DF
:100EB400BD465DF8047B70470038024080B582B0BF
:100EC40000AF0346FB71FB79013B032B16D801A24B
:100ED40052F823F0E90E0008EF0E0008F50E0008A2
:100EE400FB0E000800F072F808E000F09DF805E041
:100EF40000F0C8F802E000F0F3F800BF00BF0837C4
:100F0400BD4680BD80B483B000AF0346FB800A4A6F
:100F1400FB88D36000BF084B9B68DB0903F0010327
:100F2400002BF8D0044BDB689BB218460C37BD4647
:100F34005DF8047B704700BF0030014080B500AF0E
:100F4400054B1B689847054B5B68044A23F0400334
:100F5400536000BF80BD00BF60000020003001402E
:100F640080B500AF054B5B689847054B5B68044A46
:100F740023F04003536000BF80BD00BF6000002029
:100F84000038004080B500AF054B9B689847054B7F
:100F94005B68044A23F04003536000BF80BD00BF78
:100FA40060000020003C004080B500AF054BDB68CA
:100FB4009847054B5B68044A23F04003536000BF25
:100FC40080BD00BF60000020003C004080B400AF42
:100FD400144B1B68134A23F004031360114B1B6862
:100FE400104A23F0010313600E4B1B680D4A23F0D3
:100FF400020313600B4B1B680A4A23F0800313603F
:10100400084B1B68074A23F400631360054B1B68F5
:10101400044A43F04003136000BFBD465DF8047BFF
:10102400704700BF0030014080B400AF144B1B6810
:10103400134A23F004031360114B1B68104A23F076
:10104400010313600E4B1B680D4A23F00203136067
:101054000B4B1B680A4A23F080031360084B1B6880
:10106400074A23F400631360054B1B68044A43F0EA
:101074004003136000BFBD465DF8047B704700BFAA
:101084000038004080B400AF144B1B68134A23F0AF
:1010940004031360114B1B68104A23F0010313600F
:1010A4000E4B1B680D4A23F0020313600B4B1B68A5
:1010B4000A4A23F080031360084B1B68074A23F491
:1010C40000631360054B1B68044A43F0400313603C
:1010D40000BFBD465DF8047B704700BF003C004084
:1010E40080B400AF144B1B68134A23F0040313604D
:1010F400114B1B68104A23F0010313600E4B1B684D
:101104000D4A23F0020313600B4B1B680A4A23F0B9
:1011140080031360084B1B68074A23F400631360C1
:10112400054B1B68044A43F04003136000BFBD46EF
:101134005DF8047B704700BF0034014080B400AF09
:101144000C4B1B78002B06D10A4B01221A700A4B58
:1011540001221A7009E0074B1B78012B05D1054BBE
:1011640000221A70044B00221A7000BFBD465DF8BD
:10117400047B7047710000207000002080B582B0AD
:1011840000AF0020FFF798FD00210120FFF74AFE81
:101194000C210420FFF746FE0E210420FFF742FE37
:1011A4000A2206210020FFF71DFA0A220721002047
:1011B400FFF718FA0A2204210020FFF713FA0A2283
:1011C40005210020FFF70EFA052206210020FFF773
:1011D400E9FB052207210020FFF7E4FB0522042197
:1011E4000020FFF7DFFB052205210020FFF7DAFBD3
:1011F400012200210020FFF7F5F900220021002040
:10120400FFF7AEFA012202210020FFF7EBF90022DA
:1012140002210020FFF7A4FA002201210020FFF799
:10122400E1F90720FFF726FD25490120FFF74EF9D4
:1012340002210120FEF7E4FF00210120FFF726F838
:101244000120FFF73BFE0120FEF7C2FF16E0052058
:10125400FFF758FE0346FB71FB79052B04D10122ED
:1012640000210020FFF7ECFA164B1B78012B05D167
:10127400002200210020FFF7E3FA03E0114B1B7862
:10128400002BE4D016E00520FFF73CFE0346FB717B
:10129400FB79052B04D1012202210020FFF7D0FAAB
:1012A400084B1B78002B05D1002202210020FFF7F8
:1012B400C7FA03E0034B1B78012BE4D0C3E700BF5C
:1012C400411100087000002080B400AFFEE780B434
:1012D40000AFFEE780B400AFFEE780B400AFFEE7E6
:1012E40080B400AFFEE780B400AF00BFBD465DF838
:1012F400047B704780B400AF00BFBD465DF8047B3B
:10130400704780B400AF00BFBD465DF8047B7047F2
:1013140080B500AF00F03EF800BF80BD80B400AFE0
:10132400064BD3F88830054A43F47003C2F888307A
:1013340000BFBD465DF8047B704700BF00ED00E0D0
:10134400DFF834D00D480E490E4A002302E0D45889
:10135400C4500433C4188C42F9D30B4A0B4C0023F9
:1013640001E013600432A242FBD3FFF7D7FF00F081
:1013740025F8FFF703FF704700000120000000205C
:101384000400002028140008040000207800002035
:10139400FEE7000080B400AF064B1B781A46064BEC
:1013A4001B681344044A136000BFBD465DF8047B08
:1013B400704700BF000000207400002070B50D4D80
:1013C4000D4C641BA4100026A64209D10B4D0C4CF5
:1013D40000F018F8641BA4100026A64205D170BDC5
:1013E40055F8043B98470136EEE755F8043B984717
:1013F4000136F2E720140008201400082014000825
:1014040024140008F8B500BFF8BC08BC9E46704719
:0C141400F8B500BFF8BC08BC9E4670474D
:04142000B901000806
:041424009501000826
:0414280001000000BF
:040000050800134597
:00000001FF
