:020000040800F2
:1000000000000120410E0008C70D0008CD0D0008BA
:10001000D30D0008D90D0008DF0D00080000000016
:10002000000000000000000000000000E50D0008D6
:10003000F30D000800000000010E00080F0E00087C
:10004000910E0008910E0008910E0008910E000814
:10005000910E0008910E0008910E0008910E000804
:10006000910E0008910E0008910E0008910E0008F4
:10007000910E0008910E0008910E0008910E0008E4
:10008000910E0008910E0008910E0008000000007B
:10009000000000000000000000000000910E0008B9
:1000A000910E0008910E0008910E0008910E0008B4
:1000B000910E0008910E0008910E0008910E0008A4
:1000C000910E0008910E0008910E0008F90A000830
:1000D0001D0B0008910E0008910E000800000000A2
:1000E000910E0008910E0008910E0008000000001B
:1000F000000000000000000000000000910E000859
:1001000000000000910E0008910E0008410B00084D
:1001100000000000000000000000000000000000DF
:10012000910E0008910E0008910E0008910E000833
:10013000910E000800000000000000000000000018
:10014000000000000000000000000000910E000808
:10015000910E0008910E0008910E0008910E000803
:10016000910E0008910E0008000000000000000041
:10017000000000000000000000000000000000007F
:1001800000000000910E00080000000000000000C8
:04019000650B0008F3
:1001940010B5054C237833B9044B13B10448AFF3BD
:1001A40000800123237010BD040000200000000023
:1001B400040F000808B5034B1BB103490348AFF310
:1001C400008008BD0000000008000020040F0008A3
:1001D40080B483B000AF0346FB710B46BB7113467A
:1001E4007B71FB79052B00F29F8001A252F823F06A
:1001F4000D0200083D0200086D0200089D0200087F
:10020400CD020008FD0200084A4B1B68BA7952006F
:10021400032101FA02F2D2431146464A0B4013600D
:10022400444B1B687979BA79520001FA02F21146FB
:10023400404A0B43136077E03F4B1B68BA79520086
:10024400032101FA02F2D24311463B4A0B401360E8
:10025400394B1B687979BA79520001FA02F21146D6
:10026400354A0B4313605FE0344B1B68BA79520084
:10027400032101FA02F2D2431146304A0B401360C3
:100284002E4B1B687979BA79520001FA02F21146B1
:100294002A4A0B43136047E0294B1B68BA79520082
:1002A400032101FA02F2D2431146254A0B4013609E
:1002B400234B1B687979BA79520001FA02F211468C
:1002C4001F4A0B4313602FE01E4B1B68BA79520080
:1002D400032101FA02F2D24311461A4A0B40136079
:1002E400184B1B687979BA79520001FA02F2114667
:1002F400144A0B43136017E0134B1B68BA7952007E
:10030400032101FA02F2D24311460F4A0B40136053
:100314000D4B1B687979BA79520001FA02F2114641
:10032400094A0B43136000BF00BF0C37BD465DF89C
:10033400047B7047000002400004024000080240B1
:10034400000C024000100240001C024080B483B044
:1003540000AF0346FB710B46BB7113467B71FB79FF
:10036400052B00F29F8001A252F823F089030008B4
:10037400B9030008E9030008190400084904000847
:10038400790400084A4BDB68BA795200032101FA68
:1003940002F2D2431146464A0B40D360444BDB6819
:1003A4007979BA79520001FA02F21146404A0B43B4
:1003B400D36077E03F4BDB68BA795200032101FA3E
:1003C40002F2D24311463B4A0B40D360394BDB68FF
:1003D4007979BA79520001FA02F21146354A0B438F
:1003E400D3605FE0344BDB68BA795200032101FA31
:1003F40002F2D2431146304A0B40D3602E4BDB68E5
:100404007979BA79520001FA02F211462A4A0B4369
:10041400D36047E0294BDB68BA795200032101FA23
:1004240002F2D2431146254A0B40D360234BDB68CA
:100434007979BA79520001FA02F211461F4A0B4344
:10044400D3602FE01E4BDB68BA795200032101FA16
:1004540002F2D24311461A4A0B40D360184BDB68B0
:100464007979BA79520001FA02F21146144A0B431F
:10047400D36017E0134BDB68BA795200032101FA09
:1004840002F2D24311460F4A0B40D3600D4BDB6896
:100494007979BA79520001FA02F21146094A0B43FA
:1004A400D36000BF00BF0C37BD465DF8047B7047C6
:1004B400000002400004024000080240000C024018
:1004C40000100240001C024080B485B000AF034617
:1004D4000A46FB711346BB710023FB73FB79052BA2
:1004E4004AD801A252F823F00505000819050008AE
:1004F4002D05000841050008550500086905000898
:10050400214B1A69BB7922FA03F3DBB203F001032E
:10051400FB7331E01D4B1A69BB7922FA03F3DBB29A
:1005240003F00103FB7327E0194B1A69BB7922FA24
:1005340003F3DBB203F00103FB731DE0154B1A69EF
:10054400BB7922FA03F3DBB203F00103FB7313E07C
:10055400114B1A69BB7922FA03F3DBB203F00103EE
:10056400FB7309E00D4B1A69BB7922FA03F3DBB282
:1005740003F00103FB7300BFFB7B18461437BD4631
:100584005DF8047B704700BF000002400004024095
:1005940000080240000C024000100240001C02400F
:1005A40080B485B000AF0346FB710B46BB711346A4
:1005B4007B71BB79072B00F2A380FB79052B00F23A
:1005C400458101A252F823F0E5050008150600084C
:1005D4004506000875060008A5060008D5060008AB
:1005E4009D4B1B6ABA7992000F2101FA02F2D243A1
:1005F4001146994A0B401362974B1B6A7979BA7971
:10060400920001FA02F21146934A0B4313621DE170
:10061400924B1B6ABA7992000F2101FA02F2D2437B
:1006240011468E4A0B4013628C4B1B6A7979BA7956
:10063400920001FA02F21146884A0B43136205E163
:10064400874B1B6ABA7992000F2101FA02F2D24356
:100654001146834A0B401362814B1B6A7979BA793C
:10066400920001FA02F211467D4A0B431362EDE057
:100674007C4B1B6ABA7992000F2101FA02F2D24331
:100684001146784A0B401362764B1B6A7979BA7922
:10069400920001FA02F21146724A0B431362D5E04A
:1006A400714B1B6ABA7992000F2101FA02F2D2430C
:1006B40011466D4A0B4013626B4B1B6A7979BA7908
:1006C400920001FA02F21146674A0B431362BDE03D
:1006D400664B1B6ABA7992000F2101FA02F2D243E7
:1006E4001146624A0B401362604B1B6A7979BA79EE
:1006F400920001FA02F211465C4A0B431362A5E030
:10070400BB79083BFB73FB79052B00F29F8001A2A8
:1007140052F823F031070008610700089107000828
:10072400C1070008F1070008210800084A4B5B6A6A
:10073400FA7B92000F2101FA02F2D2431146464A93
:100744000B405362444B5B6A7979FA7B920001FA5D
:1007540002F21146404A0B43536277E03F4B5B6A17
:10076400FA7B92000F2101FA02F2D24311463B4A6E
:100774000B405362394B5B6A7979FA7B920001FA38
:1007840002F21146354A0B4353625FE0344B5B6A15
:10079400FA7B92000F2101FA02F2D2431146304A49
:1007A4000B4053622E4B5B6A7979FA7B920001FA13
:1007B40002F211462A4A0B43536247E0294B5B6A13
:1007C400FA7B92000F2101FA02F2D2431146254A24
:1007D4000B405362234B5B6A7979FA7B920001FAEE
:1007E40002F211461F4A0B4353622FE01E4B5B6A11
:1007F400FA7B92000F2101FA02F2D24311461A4AFF
:100804000B405362184B5B6A7979FA7B920001FAC8
:1008140002F21146144A0B43536217E0134B5B6A0E
:10082400FA7B92000F2101FA02F2D24311460F4AD9
:100834000B4053620D4B5B6A7979FA7B920001FAA3
:1008440002F21146094A0B43536200BF00BF14373A
:10085400BD465DF8047B704700000240000402407E
:1008640000080240000C024000100240001C02403C
:1008740080B483B000AF0346FB71FB79022B62D0D6
:10088400022B00F3A280002B33D0012B40F09D807B
:10089400514B1B68504A43F48033136000BF4E4BE6
:1008A4001B685B0C03F00103002BF8D04A4B1B6858
:1008B400494A43F48023136000BF474B9B68464A70
:1008C40043F001039360444B9B68434A23F00203C3
:1008D400936000BF404B9B689B0803F00103012B0E
:1008E40070D03D4B9B68DB0803F00103002BF1D073
:1008F40068E0394B1B68384A43F00103136000BFBA
:10090400354B1B685B0803F00103002BF8D0324B16
:100914009B68314A23F0010393602F4B9B682E4A56
:1009240023F00203936000BF2B4B9B689B0803F0EA
:100934000103002B48D0284B9B68DB0803F001031C
:10094400002BF1D040E0244B1B68234A43F0010301
:10095400136000BF204B1B685B0803F00103002BEE
:10096400F8D01D4B1B681C4A43F08073136000BF12
:10097400194B1B685B0E03F00103002BF8D0164BD8
:100984005B68154A23F480035360134B9B68124A37
:1009940023F001039360104B9B680F4A43F002035A
:1009A400936000BF0C4B9B689B0803F00103002B72
:1009B40006D0094B9B68DB0803F00103012BF1D03F
:1009C40000BF02E000BF00E000BF00BF0C37BD461F
:1009D4005DF8047B704700BF0038024080B483B0E8
:1009E40000AF03460A46FB711346BB71FB79013B1A
:1009F400032B37D801A252F823F000BF110A0008D4
:100A0400270A00083D0A0008530A0008184B1B6B0C
:100A1400BA79012101FA02F21146154A0B43136314
:100A240020E0134B5B6BBA79012101FA02F2114603
:100A34000F4A0B43536315E00D4B1B6CBA7901212C
:100A440001FA02F211460A4A0B4313640AE0084B06
:100A54005B6CBA79012101FA02F21146044A0B4394
:100A6400536400BF00BF0C37BD465DF8047B70477C
:100A74000038024080B582B000AF0346FB71FB79B9
:100A8400013B032B16D801A252F823F0A10A000857
:100A9400A70A0008AD0A0008B30A000800F072F8BB
:100AA40008E000F0A3F805E000F0D4F802E000F05C
:100AB40007F900BF00BF0837BD4680BD80B483B0CE
:100AC40000AF0346FB800A4AFB88D36000BF084B93
:100AD4009B68DB0903F00103002BF8D0044BDB68AF
:100AE4009BB218460C37BD465DF8047B704700BFC7
:100AF4000030014080B500AF054B1B689847054B9B
:100B04005B68044A23F04003536000BF80BD00BF0C
:100B1400200000200030014080B500AF054B5B6829
:100B24009847054B5B68044A23F04003536000BFB9
:100B340080BD00BF200000200038004080B500AF19
:100B4400054B9B689847054B5B68044A23F04003B8
:100B5400536000BF80BD00BF20000020003C004067
:100B640080B500AF054BDB689847054B5B68044ACA
:100B740023F04003536000BF80BD00BF200000206D
:100B8400003C004080B400AF174B1B68164A43F08A
:100B940004031360144B1B68134A23F0010313600E
:100BA400114B1B68104A23F0020313600E4B1B68A1
:100BB4000D4A43F0100313600B4B1B680A4A23F0E1
:100BC40080031360084B1B68074A23F40063136017
:100BD400054B1B68044A43F04003136000BFBD4645
:100BE4005DF8047B704700BF0030014080B400AF63
:100BF400174B1B68164A43F004031360144B1B681D
:100C0400134A23F001031360114B1B68104A23F0AD
:100C1400020313600E4B1B680D4A43F0100313606C
:100C24000B4B1B680A4A23F080031360084B1B68B4
:100C3400074A23F400631360054B1B68044A43F01E
:100C44004003136000BFBD465DF8047B704700BFDE
:100C54000038004080B400AF174B1B68164A43F0BD
:100C640004031360144B1B68134A23F0010313603D
:100C7400114B1B68104A23F0020313600F4B1B68CF
:100C84000E4A43F0100313600B4B1B680A4A23F00F
:100C940080031360084B1B68074A23F40063136046
:100CA400054B1B68044A43F04003136000BFBD4674
:100CB4005DF8047B704700BF003C004000300140F9
:100CC40080B400AF174B1B68164A43F0040313604B
:100CD400144B1B68134A23F001031360114B1B6868
:100CE400104A23F0020313600E4B1B680D4A43F0B5
:100CF400100313600B4B1B680A4A23F08003136034
:100D0400084B1B68074A23F400631360054B1B68F8
:100D1400044A43F04003136000BFBD465DF8047B02
:100D2400704700BF0034014080B500AF0020FFF7DA
:100D34009FFD00210120FFF751FE0C210420FFF745
:100D44004DFE0A2206210020FFF742FA0A2207215B
:100D54000020FFF73DFA0A2204210020FFF738FAA9
:100D64000A2205210020FFF733FA0522062100207C
:100D7400FFF716FC052207210020FFF711FC0522CE
:100D840004210020FFF70CFC052205210020FFF7B9
:100D940007FC002200210020FFF71AFA012200219B
:100DA4000020FFF7D3FA0120FFF764FE00210020A2
:100DB400FFF78AFB0346002BF8D10520FFF77EFEE0
:100DC400F4E780B400AFFEE780B400AFFEE780B480
:100DD40000AFFEE780B400AFFEE780B400AFFEE7EB
:100DE40080B400AF00BFBD465DF8047B704780B49B
:100DF40000AF00BFBD465DF8047B704780B400AF10
:100E040000BFBD465DF8047B704780B500AF00F0BD
:100E14003FF800BF80BD000080B400AF064BD3F89C
:100E24008830054A43F47003C2F8883000BFBD46D9
:100E34005DF8047B704700BF00ED00E0DFF834D0BC
:100E44000D480E490E4A002302E0D458C45004331E
:100E5400C4188C42F9D30B4A0B4C002301E01360F5
:100E64000432A242FBD3FFF7D7FF00F025F8FFF7C7
:100E74005BFF7047000001200000002004000020F8
:100E8400240F00080400002034000020FEE70000C6
:100E940080B400AF064B1B781A46064B1B681344FC
:100EA400044A136000BFBD465DF8047B704700BF71
:100EB400000000203000002070B50D4D0D4C641B67
:100EC400A4100026A64209D10B4D0C4C00F018F8D2
:100ED400641BA4100026A64205D170BD55F8043B3E
:100EE40098470136EEE755F8043B98470136F2E798
:100EF4001C0F00081C0F00081C0F0008200F00081E
:100F0400F8B500BFF8BC08BC9E467047F8B500BFF2
:080F1400F8BC08BC9E467047C2
:040F1C00B90100080F
:040F2000950100082F
:040F240001000000C8
:0400000508000E41A0
:00000001FF
